:020000040000FA
:20000000A6C60000C0C60000BEC60000BCC60000BAC60000B8C60000B6C60000B4C60000F4
:20002000B2C60000B0C60000AEC60000ACC60000AAC60000A8C60000A6C60000A4C6000038
:20004000A2C60000A0C600009EC600009CC600009AC6000098C600000C94A31E94C6000093
:2000600092C6000090C600008EC600008CC600008AC6000088C6000086C6000084C60000F8
:2000800082C6000080C600000C94601E7CC600007AC6000078C6000076C6000074C600007E
:2000A00072C6000070C600006EC600006CC600006AC6000068C6000066C6000064C60000B8
:2000C00062C6000060C600005EC600005CC600005AC6000058C6000056C6000054C6000018
:2000E00052C6000050C600004EC600004CC600004AC6000048C6000046C6000044C6000078
:2001000042C6000040C600003EC600003CC600003AC6000038C6000036C6000034C60000D7
:2001200032C6000030C600002EC600002CC600002AC6000028C6000026C6000024C6000037
:2001400022C6000020C600001EC600000C943E1F1AC6000018C6000016C6000014C600007C
:2001600012C6000010C600000EC600000CC600000AC6000008C6000006C6000004C60000F7
:2001800002C6000000C60000FEC50000FCC50000FAC50000F8C50000F6C50000F4C500005D
:2001A000F2C50000F0C50000EEC50000ECC50000EAC50000E8C50000E6C50000E4C50000BF
:2001C000E2C50000E0C50000DEC50000DCC50000DAC50000D8C50000D6C50000D4C500001F
:2001E000D2C50000D0C50000CEC50000CCC50000CAC500000C94DC35C6C500002E03520061
:2002000065007600450020005200650062006F006F00740065006400200028006900630056
:2002200065006D0061006E00290000001C034300680061006D0065006C0065006F006E0049
:200240004D0069006E00690000000403090409023E00020100C032090400000102020100AC
:200260000524001001042402060524060001070582030800FF09040100020A000000070526
:200280000402100005070583021000051201100102000008EB03442001000102DC019F0796
:2002A0000000A007A107A207A307A4078B078C0799078F0795079807900794071000000019
:2002C000000000000401222000005920F5230824A307A4078B070C24DA24F92458255D25E9
:2002E0004B2553254000000004000000070022200000592000240824A307A4078B070C24A9
:20030000DA24F92458255D254B255325500000000400000007002220000059200424082471
:20032000A307A4078B070C24DA24F92458255D254B255325A40000000400000007002220B3
:200340000000592072259725A307A4078B078127D82A052B4A2B4F2B3D2B452B0004000045
:2003600000000000040022200000592072259725A307A4078B078127D82A052B4A2B4F2BBB
:200380003D2B452B000400000000000007002220000059207C259725A307A4078B078127D3
:2003A000D82A052B4A2B4F2B3D2B452B001000000000000004002220000059207C25972518
:2003C000A307A4078B078127D82A052B4A2B4F2B3D2B452B0010000000000000070022203C
:2003E0000000592086259725A307A4078B078127D82A052B4A2B4F2B3D2B452B4001000054
:200400000000000004002220000059209A2E962EA307A4078B07D22E252E442E95079807AA
:2004200090079407B4000000000000000700222000005920AC2E962EA307A4078B07D22E8F
:20044000252E442E95079807900794071C020000000000000700222000005920BF2E962ED9
:20046000A307A4078B07D22E252E442E95079807900794079C03000000000000070022207B
:20048000000059208B259725A307A4078B078127D82A052B4A2B4F2B3D2B452B00040000EB
:2004A000D0000000040000434C4F53454400000000000000000000000000000000000000AE
:2004C00000000000000000014D465F554C5452414C49474854000000000000000000000029
:2004E0000000000000000000024D465F554C5452414C494748545F4556315F3830420000D4
:20050000000000000000000000034D465F554C5452414C494748545F4556315F313634427F
:2005200000000000000000000000044D465F434C41535349435F314B0000000000000000E8
:200540000000000000000000000000054D465F434C41535349435F314B5F374200000000EF
:20056000000000000000000000000000064D465F434C41535349435F344B000000000000A3
:2005800000000000000000000000000000074D465F434C41535349435F344B5F37420000AA
:2005A0000000000000000000000000000000084D465F434C41535349435F4D494E490000B3
:2005C000000000000000000000000000000000094E54414732313300000000000000000052
:2005E000000000000000000000000000000000000A4E54414732313500000000000000002F
:2006000000000000000000000000000000000000000B4E544147323136000000000000000C
:200620000000000000000000000000000000000000000C4D465F434C41535349435F4445D2
:2006400054454354494F4E000000000000000000000000010000010001010000010100017D
:2006600000000100010100010000010100000100010100000101000100000101000001006B
:2006800001010001000001000101000001010001000001000101000100000101000001004A
:2006A000010100010000010001010000010100010000010100000100010100000101000129
:2006C00000000100010100010000010100000100010100000101000100000101000001000B
:2006E0000101000100000100010100000101000100000101000001000101000001010001E9
:200700000000010001010001000001010000010001010001000001000101000001010001C9
:200720000000010001010001000001010000010001010000010100010000010100000100AA
:2007400001010001000001000101000001010001000001008040C020A060E0109050D0301F
:20076000B070F0088848C828A868E8189858D838B878F8048444C424A464E4149454D434C5
:20078000B474F40C8C4CCC2CAC6CEC1C9C5CDC3CBC7CFC028242C222A262E2129252D23273
:2007A000B272F20A8A4ACA2AAA6AEA1A9A5ADA3ABA7AFA068646C626A666E6169656D63645
:2007C000B676F60E8E4ECE2EAE6EEE1E9E5EDE3EBE7EFE018141C121A161E1119151D1311A
:2007E000B171F1098949C929A969E9199959D939B979F9058545C525A565E5159555D53525
:20080000B575F50D8D4DCD2DAD6DED1D9D5DDD3DBD7DFD038343C323A363E3139353D333D2
:20082000B373F30B8B4BCB2BAB6BEB1B9B5BDB3BBB7BFB078747C727A767E7179757D737A4
:20084000B777F70F8F4FCF2FAF6FEF1F9F5FDF3FBF7FFF434C4F5345440000000000000049
:200860000000000000000052414E444F4D5F554944000000000000000000005549445F4CE9
:200880004546545F494E4352454D454E5400005549445F52494748545F494E4352454D4554
:2008A0004E54005549445F4C4546545F44454352454D454E5400005549445F524947485475
:2008C0005F44454352454D454E5400535749544348434152440000000000000000000052E4
:2008E0004541444F4E4C59000000000000000000000000434152445F46554E4354494F4E0D
:20090000000000000000000006200006100006080006048006088006048006028006010854
:200920000B0B10000100080008000100000100000800F800000804000200000800080B0B4A
:2009400010000100100008000200000100000800F800001008000400001000090C0C11000D
:200960000200100010000200000200001000F001001010000800002000090C0C10000200D5
:20098000200010000400000100001000F0000040200010000040000903030A0001008000D8
:2009A00008001000000400000800F803002040002000008000253032782530327825303293
:2009C000782530327800253575206D5600257500256C750052414E444F4D004368616D65AF
:2009E0006C656F6E4D696E692D2573207625642E2564202825733A20257329000D0A000D02
:200A00000A000D0A000D0A000D0A000D0A00643130303A4F4B0000000000000000000000A7
:200A2000000000000000000000000000000000653130313A4F4B205749544820544558542A
:200A4000000000000000000000000000000000006E3131303A57414954494E4720464F5242
:200A600020584D4F44454D00000000000000000000C83230303A554E4B4E4F574E20434F16
:200A80004D4D414E4400000000000000000000000000C93230313A494E56414C49442043E9
:200AA0004F4D4D414E4420555341474500000000000000CA3230323A494E56414C49442026
:200AC000504152414D455445520000000000000000000000CB3230333A54494D454F5554B4
:200AE00000000000000000000000000000000000000000000056455253494F4E00000000D0
:200B000000000000000000000000004617434F4E464947000000000000000000007A170031
:200B2000006F17691755494400000000000000000000000000000000003F18151841545163
:200B40004100000000000000000000000000000000A717801753414B000000000000000020
:200B6000000000000000000000FA17DA17524541444F4E4C59000000000000000000000015
:200B8000009218861855504C4F414400000000000000000000A518000000000000444F57A1
:200BA0004E4C4F41440000000000000000AA18000000000000524553455400000000000082
:200BC0000000000000AF1800000000000055504752414445000000000000000000BA180074
:200BE00000000000004D454D53495A45000000000000000000000000000000C518574F5206
:200C00004B4D454D000000000000000000DA1900000000D619574F524B4D454D55504C4F66
:200C20004144000000DE19000000000000574F524B4D454D444F574E4C4F414400E31900C2
:200C4000000000000055494453495A45000000000000000000000000000000E8194255548B
:200C6000544F4E00000000000000000000FE1900000C1A041A425554544F4E5F4C4F4E47BD
:200C80000000000000171A0000251A1D1A53455454494E470000000000000000000000008F
:200CA00000361A301A434C4541520000000000000000000000411A00000000000048454CFF
:200CC00050000000000000000000000000511A000000000000525353490000000000000018
:200CE0000000000000000000000000901A505744000000000000000000000000000000005F
:200D0000000000AB1A444554454354494F4E00000000000000000000000000E51A434C459C
:200D20004152414C4C00000000000000001C1B000000000000000000000000000000000010
:200D4000000000000000000000000000000011241FBECFEFCDBFDFE2DEBF10E2A0E0B0E2D5
:200D6000EAEBF9E702C005900D92A23EB107D9F727E2A2EEB0E201C01D92A437B207E1F759
:200D800003D00C94DB3C57C05CD00E94351436D38DD3F8D00E94E51642D18FD214D4B6D0EB
:200DA000C1E080910C0A80FF0CC0C0930C0A97D33AD10E94021788D2E0917521F09176210E
:200DC00009950E94E916E0916D21F0916E210995E8CF292F30E02230310559F023303105AE
:200DE00069F021303105F9F482E190E02CE832E01EC08EE390E02EE432E019C0882349F08D
:200E0000813061F0823079F48EE290E02CEF31E00EC084E090E02AE432E009C08CE190E03D
:200E20002CE232E004C080E090E020E030E0FA012083318308951F920F920FB60F92112412
:200E4000FFCF8091780083FF0AC088E08093780088ED84BF81E080938000FD95FEC08091EF
:200E600050008660809350008091510081FFFCCF8091510082FFFCCF1092560081E0809312
:200E8000600098ED94BF8093400023ED30E32093260A3093270A96E09093000A80934300D4
:200EA00080930004089588ED84BF81E080937900089588ED84BF8BE18093800008958BEC71
:200EC00080935200809150008860809350008091510083FFFCCF84EC809355008091500019
:200EE0008061809350008091510084FFFCCF0895E0E4F0E084818E7F8483E0E5F0E080811E
:200F00008F7E80838081877F8083089587E08093A20078940895089580E090E008950895AE
:200F2000FC011082118208950895FC0110820895089524E0FC0111922A95E9F7089508950F
:200F400008950895089508950895CF93DF93E0919221F0919321828398E2899FB0011124C6
:200F600062567D4F48E250E089E691E20E94F438C9E6D1E2E881F9810995EE81FF81DF91A1
:200F8000CF910994E0919221F09193218281DDCF0F931F93E0919221F09193218B019C0176
:200FA00042816DE086EA94E0AAD21F910F9108951F93CF93DF931F92CDB7DEB79E012F5F57
:200FC0003F4FAC016DE086EA94E0B1D2182F882311F08981BADF812F0F90DF91CF911F91BD
:200FE00008959B01AC016DE086EA94E0C7C228E2829FC0011124FC01E454FD4F65917591B3
:2010000085919491089528E2829FC0011124FC01E054FD4F659175918591949108950895E9
:201020000C94E63808950E94E6380E94E6380E94E6380C94E638CF93DF93EC01615071096B
:20104000DA01420F531FFC01CF018C1B9D0BA417B50721F41082DF91CF9108956230710543
:20106000C8F39D91392F32953F703A3010F4305D01C0395C30839F709A3010F4905D01C01A
:20108000995C9183329662507109DECFCF93DF93EC01DA0120E030E05C91552351F11196AC
:2010A0009C911197992339F12617370711F180ED850F8A3020F08FEB850F8630E0F480ED28
:2010C000890F8A3020F04FEB490F4630A0F4E52FF0E0513408F0F797E295E07F913410F484
:2010E000982F01C097539E2B99932F5F3F4F1296D3CFC90102C080E090E0DF91CF9108955A
:201100000F931F93CF93DF93CDB7DEB76097CDBFDEBF813001F5E0917B21F0917C21CE01CD
:2011200001960995E0919221F09193218281815011E0833008F010E080918F21181708F0D9
:2011400099C06EDFE1E0F0E0EC0FFD1FE10FF11D80831F5FF1CF8230B9F5E0917B21F09114
:201160007C218E010F5F1F4FC801099520918F21F80191E08E2F801B8217F8F4992339F073
:20118000808191E08F3F09F090E08F5F80833196F1CF843009F049C0E0917B21F0917C214D
:2011A0008E010F5F1F4FC801099520918F21F80191E08E2F801B821770F1E0917D21F091B0
:2011C0007E21C801099571C0833019F7E0917B21F0917C21CE010196099580918F2141E004
:2011E000815008F447C04423D9F3282F30E0E1E0F0E0EC0FFD1FE20FF31F908141E09F3FC6
:2012000009F040E0E1E0F0E0EC0FFD1FE20FF31F9F5F9083E5CF992331F0808191E0811164
:2012200090E0815080833196C4CF853051F5E0917B21F0917C21CE010196099580918F2125
:2012400041E08150B8F04423E1F3282F30E0E1E0F0E0EC0FFD1FE20FF31F908141E09111D3
:2012600040E0E1E0F0E0EC0FFD1FE20FF31F91509083E7CFE0917D21F0917E21CE01019664
:20128000A1CF863011F4DDD010C0873039F49091902181E089278093902107C0883029F47F
:2012A000E0917721F091782109956096CDBFDEBFDF91CF911F910F910895E0E0F6E080E497
:2012C000828388E1868B0895909108068091E22096FD10C08A3050F08A30B9F4E0919221C8
:2012E000F091932181810CDF8091E2208F5F8093E220089581508A3030F4E0919221F091C5
:2013000093218081FDDE1092E2200895CF936150710943E558E020E0CCE2FA01DC01CD01BB
:201320003491311108C0283071F0CC9361507109CD01019608C065317105A8F33D93319630
:2013400061507109ECCF2F5F4C5E5F4F293029F7FC011082CF910895E1E9F1E298E0811115
:2013600002C0638303C0813009F46483915035969111F5CF0895282FCB0121110AC0E0912E
:201380009221F0919321608124E1629FB00111240BC0213069F4E0919221F09193216181E4
:2013A000E4E16E9FB00111246D5A774F0C940639FB0110820895EF92FF920F931F93CF9316
:2013C000DF93D82F7B0103E518E0C0E0B801C7010E94FD38892B29F46C2F8D2FBDDF81E01B
:2013E00006C0CF5F0C5E1F4FC93081F780E0DF91CF911F910F91FF90EF9008954CE250E027
:2014000060E070E081E991E20C94343C4CE250E060E070E081E991E20C94E13B883078F4A4
:201420008093912125E0829FC00111248C569E4D8093922190939321A5DD81E0089580E081
:2014400008953091912129E045E02150B1F0832F90E0019687709927382FBC016F5F7F4F0C
:20146000469FF001479FF00D1124EF56FE4D5081552359F3D3DF8111C9CF0895FC018EE471
:2014800080838FE481838EE2828380919121805D838314820895FC012181211105C08081ED
:2014A0008053883008F4BACF80E008958FE0809381068CE380930106089590E0FC01EE0F86
:2014C000FF1F8E0F9F1FFC01E95FF64FA591B491FC01E75FF64F849115968C930895A0E00A
:2014E000B6E016961C921697E0E8F6E016828CE316968C938FE0868380919121DECF0F9355
:201500001F93FC01662379F094916150941309C0BF016F5F7F4FA801C9010E94063981E0D3
:2015200003C0B196EFCF80E01F910F910895CF92DF92EF92FF921F93CF93DF93EC017A01C4
:201540006901162F112389F0BE016F5F7F4FC7010E94FD381150892B31F4FE01C491F601B0
:20156000C08381E003C0A196EDCF80E0DF91CF911F91FF90EF90DF90CF900895CF930196BF
:20158000CCE26623D1F0FC01DA01AD017491772341F021153105A9F07D9331962150310976
:2015A000F4CF623038F02115310559F0FD01C0834F5F5F4F61508196E4CF232B11F0FA0197
:2015C0001082CF910895E0E0F2E081E08083118292E0928393E0948380A388E381A3089593
:2015E000809120028068809320028091230280FFFCCF81E080932302A0911002B0911102EB
:20160000AE5BB109B7FF02C0A0E0B0E029E637E54BE050E00C9499380895E0ECF1E0848545
:201620008860848780E094E08093BD219093BE2181E00895FF920F931F93CF93DF93CDB7B5
:20164000DEB72897CDBFDEBF88E0EDE2F0E2DE01119601900D928A95E1F7FFB600E010E0D2
:2016600048E050E0B801CE0101960E944F3C085F1F4F011584E0180799F7FFBE81E02896EC
:20168000CDBFDEBFDF91CF911F910F91FF900895CF93DF93CDB7DEB72897CDBFDEBF20914F
:2016A000E320222309F45CC02091CF213091D0218217930708F054C020E147ED20936606E3
:2016C0004093A0093091A10936FFFCCF3091A10937FFFCCF3091A0091092A0093091A10997
:2016E00036FFFCCF3091A10937FFFCCF3091A0092093650637FFE2CF20E120936606A0E06F
:20170000B0E00090C92104C0880F991FAA1FBB1F0A94D2F78D839E83AF83B88781E889838B
:201720008F818A838E818B838D818C83FE013196CE010596E817F90771F021912093A009B4
:201740002091A10926FFFCCF2091A10927FFFCCF2091A009EFCF80E18093650681E001C0D9
:2017600080E02896CDBFDEBFDF91CF910895CF93DF93CDB7DEB72897CDBFDEBF2091E3202C
:20178000222309F45AC02091D3213091D4218217930708F052C020E147ED2093660640932E
:2017A000A0093091A10936FFFCCF3091A10937FFFCCF3091A0091092A0093091A10936FF54
:2017C000FCCF3091A10937FFFCCF3091A0092093650637FFE2CF20E1209366060090CA21C8
:2017E00002C0880F991F0A94E2F7A0E0B0E08D839E83AF83B88780E589838F818A838E8112
:201800008B838D818C83FE013196CE010596E817F90771F021912093A0092091A10926FF7F
:20182000FCCF2091A10927FFFCCF2091A009EFCF80E18093650681E001C080E02896CDBFCE
:20184000DEBFDF91CF910895CF93DF93CDB7DEB72897CDBFDEBF2091E320222309F46EC085
:201860002091DF2130E08217930708F067C020E147ED209366064093A0093091A10936FFE5
:20188000FCCF3091A10937FFFCCF3091A0091092A0093091A10936FFFCCF3091A10937FF50
:2018A000FCCF3091A0092093650637FFE2CF20E120936606009761F0A0E0B0E00090CC2159
:2018C00004C0880F991FAA1FBB1F0A94D2F710C080E090E04CDF81E090E0A0E0B0E00090AF
:2018E000CB2104C0880F991FAA1FBB1F0A94D2F78D839E83AF83B8878CE789838F818A83A1
:201900008E818B838D818C83FE013196CE010596E817F90771F021912093A0092091A10994
:2019200026FFFCCF2091A10927FFFCCF2091A009EFCF80E18093650681E001C080E0289634
:20194000CDBFDEBFDF91CF910895FF920F931F93CF93DF93CDB7DEB72597CDBFDEBF80E1D9
:201960008093650682E08093660688E0809365068AE1809361061092A6091092A70980EC2E
:201980008093A50988E18093A40980E127ED809366062093A0099091A10996FFFCCF9091C1
:2019A000A10997FFFCCF9091A0091092A0099091A10996FFFCCF9091A10997FFFCCF90918F
:2019C000A0098093650697FFE2CF80E1809366068FE98093A0098091A10986FFFCCF809169
:2019E000A10987FFFCCF8091A009FE013196CE0106968F01E817F90771F01092A009209115
:201A0000A10926FFFCCF2091A10927FFFCCF2091A0092193EFCF80E1F82EF0926506898196
:201A20008093BF218A818093C0212B812093C1219D819093C221982F92959695977090930C
:201A4000C3218F7190E08093C4219093C521322F3295369537703093C6212F7130E020938A
:201A6000C7213093C82104978530910508F0A1C02EE1289FB001299F700D1124615E764F0E
:201A80004EE150E089EC91E20E94F4388091BF218F3109F08EC08091C321813009F089C051
:201AA000F092660687ED8093A0098091A10986FFFCCF8091A10987FFFCCF8091A009109295
:201AC000A0098091A10986FFFCCF8091A10987FFFCCF8091A00990E19093650680FD65C0EB
:201AE0008091352090913620A0913720B091382089839A83AB83BC8380E127ED809366065E
:201B00002093A0099091A10996FFFCCF9091A10997FFFCCF9091A0091092A0099091A10932
:201B200096FFFCCF9091A10997FFFCCF9091A0098093650697FFE2CF80E180936606F801B1
:201B4000CE0105968E179F0771F021912093A0092091A10926FFFCCF2091A10927FFFCCFCA
:201B60002091A009EFCF80E18093650627ED809366062093A0099091A10996FFFCCF909133
:201B8000A10997FFFCCF9091A0091092A0099091A10996FFFCCF9091A10997FFFCCF9091AD
:201BA000A0098093650697FFE2CF81E08093E32001C080E02596CDBFDEBFDF91CF911F91BB
:201BC0000F91FF900895CF92DF92EF92FF920F931F93CF93DF93CDB7DEB72897CDBFDEBF2C
:201BE000E091E320EE23B9F0011511052105310591F0C090E321D090E421E090E521F090FF
:201C0000E621C01AD10AE20AF30AE1E0C416D506E606F70608F4E0E0E0FF68C0F0E1A7ED98
:201C2000F0936606A093A009E091A109E6FFFCCFE091A109E7FFFCCFE091A0091092A009DD
:201C4000E091A109E6FFFCCFE091A109E7FFFCCFE091A009F0936506E7FFE2CFE0E1E0931A
:201C600066064D835E836F8378874BE049834F814A834E814B834D814C83FE013196AE0113
:201C80004B5F5F4FE417F50771F061916093A0096091A10966FFFCCF6091A10967FFFCCF6F
:201CA0006091A009EFCF1092A0094091A10946FFFCCF4091A10947FFFCCF4091A009FC01F3
:201CC0000150110970F01092A0098091A10986FFFCCF8091A10987FFFCCF8091A009819309
:201CE000EFCF80E18093650681E001C080E02896CDBFDEBFDF91CF911F910F91FF90EF90B0
:201D0000DF90CF9008952F923F924F925F926F927F928F929F92AF92BF92CF92DF92EF92AB
:201D2000FF920F931F93CF93DF93CDB7DEB76A97CDBFDEBF8D8B9E8B2A013B01480159015C
:201D40008091E3208823B9F0011511052105310591F04091E3215091E4216091E52170915F
:201D6000E621401B510B620B730B81E0441555056605770508F480E080FFFFC01D861E86DE
:201D80001F86188A10E100E11E0125E0220E311CC090CD21D090CE21C601A0E0B0E08F8B0B
:201DA000988FA98FBA8FC301B2012F89388D498D5A8D0E945E3869017A010090C92104C06F
:201DC000CC0CDD1CEE1CFF1C0A94D2F7C98ADA8AEB8AFC8ACF88D88CE98CFA8C8C149D04FD
:201DE000AE04BF0428F0C61AD70AE80AF90A02C0750164010093660627ED2093A0092091E3
:201E0000A10926FFFCCF2091A10927FFFCCF2091A0091092A0092091A10926FFFCCF20913B
:201E2000A10927FFFCCF2091A0091093650627FFE1CF0093660629893A894B895C892D83EC
:201E40003E834F83588733E539832F812A832E812B832D812C83FE013196E215F30571F00F
:201E600021912093A0092091A10926FFFCCF2091A10927FFFCCF2091A009EFCF1093650697
:201E80001093660647ED4093A0092091A10926FFFCCF2091A10927FFFCCF2091A0091092F0
:201EA000A0092091A10926FFFCCF2091A10927FFFCCF2091A0091093650627FFE1CF009311
:201EC000660629893A894B895C89262B372B482B592B29873A874B875C8732E839838B85B2
:201EE0008A838A858B8389858C83FE013196E215F30571F081918093A0098091A10986FF77
:201F0000FCCF8091A10987FFFCCF8091A009EFCFC601ED89FE894D855E85E40FF51F01975A
:201F200070F021912093A0092091A10926FFFCCF2091A10927FFFCCF2091A009F0CF1093E0
:201F400065068C189D08AE08BF084C0C5D1C6E1C7F1C8D859E85AF85B8898C0D9D1DAE1D92
:201F6000BF1D8D879E87AF87B88B81149104A104B10409F00DCF81E001C080E06A96CDBF6C
:201F8000DEBFDF91CF911F910F91FF90EF90DF90CF90BF90AF909F908F907F906F905F90CF
:201FA0004F903F902F900895CF93DF9300D000D0CDB7DEB78091E320882309F468C0809195
:201FC000392090913A20A0913B20B0913C2089839A83AB83BC8380E127ED809366062093C7
:201FE000A0099091A10996FFFCCF9091A10997FFFCCF9091A0091092A0099091A10996FF6C
:20200000FCCF9091A10997FFFCCF9091A0098093650697FFE2CF80E180936606FE01319694
:20202000CE010596E817F90771F021912093A0092091A10926FFFCCF2091A10927FFFCCF31
:202040002091A009EFCF80E18093650627ED809366062093A0099091A10996FFFCCF90914E
:20206000A10997FFFCCF9091A0091092A0099091A10996FFFCCF9091A10997FFFCCF9091C8
:20208000A0098093650697FFE2CF81E001C080E02496CDBFDEBFDF91CF9108952F923F926E
:2020A0004F925F926F927F928F929F92AF92BF92CF92DF92EF92FF920F931F93CF93DF934C
:2020C000CDB7DEB72E97CDBFDEBF4B015C0129013A012DB73EB72C873D87672B682B692BE2
:2020E00079F48091E3219091E421A091E521B091E62184159505A605B70511F455DF13C211
:202100008091CD219091CE21A0E0B0E0481659066A067B06D0F4CDB6DEB64DB75EB74419A1
:2021200055094DBF5EBF8DB79EB701967C01A2016FEF70E00E942B3993018201B501A401A2
:20214000C701E1DDCDBEDEBEEEC18091E3208823B9F0411451046104710491F04091E321E1
:202160005091E4216091E5217091E621441955096609770981E0481559056A057B0508F4C9
:2021800080E080FFCFC1C090D521D090D621E090D721F090D821C301B201A70196010E94FA
:2021A0005E3829833A834B835C836D8379878A879B8729803A802114310409F48AC0C50176
:2021C000B401A70196010E945E388901672B682B692B99F429813A814B815C81442755270E
:2021E000C701B6010E942F38860E971EA81EB91E4D8059846A847B843AC02A94232899F14D
:2022000029803A80A1E02A1A310889010F5F1F4F0C9DC0010D9D900D1C9D900D112488191A
:2022200099099C0140E050E029833A834B835C83892B19F0C501B40131DFD101A7019601A0
:202240000E948F38860E971EA81EB91E29813A814B815C81260F371F481F591F421A530AFE
:20226000640A750A04C000E010E0212C312C8091D5219091D621A091D721B091D821C816D3
:20228000D906EA06FB0681F08091D1219091D221A0E0B0E0C816D906EA06FB0651F0E8E41B
:2022A000CE2EEBE0DE2E09C074E2C72E7CE0D72E04C067EBC62E6BE0D62E7101E00EF11E0E
:2022C000E016F10631F0C801F60109950F5F1F4FF7CF0091D1211091D2216801E12CF12C46
:2022E000C301B201A70196010E945E382D833E834F83588769877A878B879E872D803E803B
:202300002114310409F493C0C501B401A70196010E945E3829833A83672B682B692B99F462
:202320002D813E814F81588544275527C701B6010E942F38860E971EA81EB91E49845A8483
:202340006B847E843AC02A94232899F12D803E8081E0281A3108D9011196A983BA830A9F25
:20236000C0010B9F900D1A9F900D1124881999099C0140E050E02D833E834F835887892BC4
:2023800019F0C501B4018ADE9801D1010E948038860E971EA81EB91E461A570A680A790AF0
:2023A0008D819E81AF81B885481A590A6A0A7B0A04C019821A82212C312C8091D5219091F8
:2023C000D621A091D721B091D821C816D906EA06FB0681F08091D1219091D221A0E0B0E05D
:2023E000C816D906EA06FB0651F058E4E52E5BE0F52E09C044E2E42E4CE0F42E04C037EB0C
:20240000E32E3BE0F32E09811A81020D131D49815A810417150759F089819A81F70109952B
:2024200029813A812F5F3F4F29833A83F0CFC090CD21D090CE21C601A0E0B0E089839A8366
:20244000AB83BC83C301B20129813A814B815C810E945E3829013A017901232B11F481E0BF
:2024600062C0C501B40129813A814B815C810E945E388901672B682B692BF1F091E0491685
:202480005104B1F07201A1E0EA1AF1080F5F1F4FC09E9001C19E300DD09E300D11242819CD
:2024A000390951F040E050E0C501B401F7DD04C000E010E0E12CF12C8091D5219091D6211D
:2024C000A091D721B091D82129813A814B815C81281739074A075B0781F08091D1219091C4
:2024E000D221A0E0B0E0281739074A075B0751F028E4C22E2BE0D22E09C094E2C92E9CE0AD
:20250000D92E04C087EBC82E8BE0D82EE00EF11E0E151F0509F4A3CFC801F60109950F5F98
:202520001F4FF6CF80E02C853D852DBF3EBF2E96CDBFDEBFDF91CF911F910F91FF90EF9091
:20254000DF90CF90BF90AF909F908F907F906F905F904F903F902F900895CF92DF92EF9277
:20256000FF926A017B012091E4203091E5204091E6205091E720A82FB0E00E948F386C0D60
:202580007D1D8E1D9F1DFF90EF90DF90CF9008950F931F9390919121981309C000918721ED
:2025A000109188212091892130918A210FC090E0019625E0289FF001299FF00D1124EF5638
:2025C000FE4D80810E94F7078B019C016091E8207091E9208091EA209091EB200F3F4FEF10
:2025E00014072407340739F0061717072807390710F4C901B8011F910F9108958091912150
:20260000C7CF8F929F92AF92BF92CF92DF92EF92FF92CF93C82F4A015B01BADF6B017C01DA
:202620002091E4203091E5204091E6205091E720AC2FB0E00E948F38DC01CB01880D991D98
:20264000AA1DBB1DBC01CD016C0D7D1D8E1D9F1DCF91FF90EF90DF90CF90BF90AF909F90DD
:202660008F9008958F929F92AF92BF92CF92DF92EF92FF92CF93C82F809191218C1309C052
:2026800080908B2190908C21A0908D21B0908E2110C08C2F90E0019625E0289FF001299FCD
:2026A000F00D1124EF56FE4D80810E9403084B015C01C090E420D090E520E090E620F09052
:2026C000E7208C2F65DFA7019601261B370B480B590BCA01B9013FEF83169306A306B30634
:2026E00039F086169706A806B90610F4C501B401CF91FF90EF90DF90CF90BF90AF909F9093
:202700008F90089580919121ADCFCF92DF92EF92FF92CF93C82F3CDF6B017C018C2FA2DF41
:202720006C0D7D1D8E1D9F1DCF91FF90EF90DF90CF90089590919121981731F091E088307A
:2027400008F090E0892F01C081E0817008954F925F926F927F928F929F92AF92BF92CF9280
:20276000DF92EF92FF920F931F935091EE205523E1F0280139014B015C01842FDBDF882326
:20278000A1F081149104A104B10479F08C149D04AE04BF0450F08C189D08AE08BF0881E09E
:2027A00084149504A604B70408F480E01F910F91FF90EF90DF90CF90BF90AF909F908F901F
:2027C0007F906F905F904F9008958F929F92AF92BF92CF92DF92EF92FF920F931F93CF9302
:2027E000C82F4A015B0168017901809191218C1302C004DF02C08C2FCBDE950184014C2F95
:20280000A6DFCF911F910F91FF90EF90DF90CF90BF90AF909F908F9008958F929F92AF929B
:20282000BF92CF92DF92EF92FF920F931F93CF93C82F4A015B0168017901809191218C13CA
:2028400002C060DF02C08C2F0DDF950184014C2F7EDFCF911F910F91FF90EF90DF90CF908F
:20286000BF90AF909F908F900895CF936ED88823E9F18091E3219091E421A091E521B091FF
:20288000E621AC01BD0133E076956795579547953A95D1F74093E4205093E5206093E62095
:2028A0007093E72046E0B695A795979587954A95D1F78093E8209093E920A093EA20B093AB
:2028C000EB2081159041A105B10590F41092E4201092E5201092E6201092E7201092E8205E
:2028E0001092E9201092EA201092EB20C0E001C0C1E00E940D0B8823B9F08091BD219091B4
:20290000BE2123E0969587952A95E1F78093EC209093ED20C19750F41092E4201092E520BF
:202920001092E6201092E72080E003C0CC23E1F381E081708093EE20CF9108952F923F925E
:202940004F925F926F927F928F929F92AF92BF92CF92DF92EF92FF920F931F93CF93FC0118
:202960004B01C42F19012701380196018501B301A2018C2F0995882361F0B301A2018C2FC2
:20298000F4010995AB01BC0196018501C1011BD901C080E0CF911F910F91FF90EF90DF901A
:2029A000CF90BF90AF909F908F907F906F905F904F903F902F900895AF92BF92CF92DF9271
:2029C000EF92FF920F931F935701680179018A019B01482F6DEA72E185EE93E1AFDF1F91E9
:2029E0000F91FF90EF90DF90CF90BF90AF900895EF92FF920F931F93780189019A01AB0180
:202A0000BC0180919121D8DF1F910F91FF90EF900895AF92BF92CF92DF92EF92FF920F936C
:202A20001F935701680179018A019B01482F61E073E18DE094E182DF1F910F91FF90EF90D5
:202A4000DF90CF90BF90AF900895EF92FF920F931F93780189019A01AB01BC01809191214D
:202A6000D8DF1F910F91FF90EF9008952F923F924F925F926F927F928F929F92AF92BF924A
:202A8000CF92DF92EF92FF920F931F93CF93FC014B01C42F19012701380196018501B30114
:202AA000A2018C2F0995882361F0B301A2018C2FF4010995AB01BC0196018501C10123D935
:202AC00001C080E0CF911F910F91FF90EF90DF90CF90BF90AF909F908F907F906F905F9070
:202AE0004F903F902F900895AF92BF92CF92DF92EF92FF920F931F935701680179018A013C
:202B00009B01482F6DEA72E185EE93E1AFDF1F910F91FF90EF90DF90CF90BF90AF9008952C
:202B2000EF92FF920F931F93780189019A01AB01BC0180919121D8DF1F910F91FF90EF9050
:202B40000895AF92BF92CF92DF92EF92FF920F931F935701680179018A019B01482F61E0F4
:202B600073E18DE094E182DF1F910F91FF90EF90DF90CF90BF90AF900895EF92FF920F93B3
:202B80001F93780189019A01AB01BC0180919121D8DF1F910F91FF90EF9008954F925F9235
:202BA0006F927F92AF92BF92CF92DF92EF92FF920F931F93CF93DF93EB015A0128013901BB
:202BC000FC010995461657066806790698F48B019C010419150926093709C016D106E206C0
:202BE000F30610F497018601B301A201C501FE01099501C080E0DF91CF911F910F91FF902F
:202C0000EF90DF90CF90BF90AF907F906F905F904F900895CF92DF92EF92FF920F931F9328
:202C2000680179018A019B01AC0165E275E182E893E1B4DF1F910F91FF90EF90DF90CF90A3
:202C40000895CF92DF92EF92FF920F931F93680179018A019B01AC0168EF74E18EEF92E14C
:202C60009DDF1F910F91FF90EF90DF90CF900895CF92DF92EF92FF920F931F9368017901F4
:202C80008A019B01AC0160E975E18EEF92E186DF1F910F91FF90EF90DF90CF900895CF9242
:202CA000DF92EF92FF920F931F93680179018A019B01AC016DEB75E182E893E16FDF1F91FC
:202CC0000F91FF90EF90DF90CF900895CF936CD9C82F0E941A0BC11102C080E090E0817021
:202CE000CF9108958F929F92AF92BF92CF92DF92EF92FF920F931F936A017B014801590131
:202D000019DD882379F0A5019401C701B6011F910F91FF90EF90DF90CF90BF90AF909F9006
:202D20008F90BCC980E01F910F91FF90EF90DF90CF90BF90AF909F908F900895CF92DF9218
:202D4000EF92FF920F931F93CF93C82FDEDC6B017C012091E4203091E5204091E6205091DE
:202D6000E720AC2FB0E00E948F38AB01BC01970186018C2FB7DFCF911F910F91FF90EF90E1
:202D8000DF90CF90089580919121D8CF8091BC210895BC0181E090E20C946A36CF93DF932F
:202DA000FC016491EC012196662331F081E090E20E94B836CE01F4CFDF91CF910895AB01C5
:202DC000BC0181E090E20C94943680E2809362060895CF93DF9381E090E20E9421370E943C
:202DE0000E3281E090E20E943D37EC0197FD07C070D4811104C08C2FDF91CF9110C6DF91F7
:202E0000CF9108958091EF20813079F028F08230D9F0833011F12EC08091680685FF2AC058
:202E200084E18093002081E00CC08091002081508093002081111EC00E945F070E94A635A3
:202E400082E08093EF2016C08091680685FD12C084E18093002083E0F4CF80910020815085
:202E600080930020811106C00E946B350E9478071092EF2080D5D0C60895089581E090E2BB
:202E80000C94453681E090E20C94913729EC30E23F932F9321ED30E23F932F931F9223E0B9
:202EA0002F931F9221E02F9348ED50E25F934F934BED59E05F934F932F931F929F938F9395
:202EC0000E9432398DB79EB740968DBF9EBF85E6089560E071E00E94C80785E60895CB01EF
:202EE0000E94D807882321F00E94060A84E608958AEC089560E071E00E94F10785E6089596
:202F00000F931F93CF93DF9300D000D0CDB7DEB78C01E0918321F0918421CE010396099502
:202F20009B818C819A83898322E030E0AE014F5F5F4F60E071E0C8010E941B0885E62496DE
:202F4000CDBFDEBFDF91CF911F910F9108950F931F93CF93DF9300D0CDB7DEB78B01198253
:202F60001A82AB0162E070E0CE0101960E9446080297C1F4F80101900020E9F73197E01B86
:202F8000F10B339730F089819A8198278927982702C0898190E0E0918521F09186210995DF
:202FA00084E601C08AEC0F900F90DF91CF911F910F9108950F931F93CF93DF931F92CDB718
:202FC000DEB78C01E0917F21F0918021CE010196099521E030E0AE014F5F5F4F60E071E0EB
:202FE000C8010E941B0885E60F90DF91CF911F910F910895CF93DF931F92CDB7DEB7AB0132
:2030000061E070E0CE0101960E944608019741F4E0918121F09182218981099584E601C0F2
:203020008AEC0F90DF91CF910895EF92FF920F931F93CF93DF93CDB7DEB7A097CDBFDEBF5B
:203040007C01E9E6F1E206A110E00288F389E02DCE01019609959801AE014F5F5F4F60E0BF
:2030600071E0C7010E941B0885E6A096CDBFDEBFDF91CF911F910F91FF90EF900895DF926C
:20308000EF92FF920F931F93CF93DF93CDB7DEB7A097CDBFDEBF7B0100918F2110E064ED7F
:2030A00079E0C7010E94FD38892BD1F4D12CED2CF12CE016F10658F40E941008E1E0F0E0E8
:2030C000EC0FFD1FEE0DFF1D8083D394F0CFE0917D21F0917E21CE010196099584E60BC031
:2030E000A70160E270E0CE0101960E9446080817190769F38AECA096CDBFDEBFDF91CF9100
:203100001F910F91FF90EF90DF900895FC0180919021882311F081E301C080E380831182BC
:2031200085E60895FB01818181110DC08081813321F481E08093902104C0803321F410920D
:20314000902184E608958AEC089588E396E190D28EE6089581E296E1A6D28EE60895E0EC20
:20316000F4E081818E7F81830E946B350E94530784E60895E0ECF4E081818E7F81830E94CE
:203180006B350E94590784E60895E9E6F1E221A12F9320A12F93278D2F93268D2F9320EDE5
:2031A00039E03F932F9321E02F931F929F938F930E9432398DB79EB70A968DBF9EBF85E640
:2031C00008954F925F926F927F928F929F92AF92BF92CF92DF92EF92FF920F931F93CF93F0
:2031E000DF93CDB7DEB77A01B02E4DB65EB6213041E0340708F042C02E153F0508F43EC0AC
:203200006DB67EB62DB73EB72E193F092DBF3EBF2F5F3F4F6901870120E030E0AB01BC017F
:20322000C60113DCBB2029F18DB69EB68701000F111FB8016D5F7F4F8DB79EB7861B970B56
:203240008DBF9EBF2DB73EB72F5F3F4F59019701A601C5010E941B08F501E00FF11F8DE04A
:2032600080838AE081831282C50193DD8DBE9EBE03C0B701C601A3DD6DBE7EBE4DBE5EBE1C
:20328000DF91CF911F910F91FF90EF90DF90CF90BF90AF909F908F907F906F905F904F907A
:2032A00008952F923F924F925F926F927F928F929F92AF92BF92CF92DF92EF92FF920F9391
:2032C0001F93CF93DF93CDB7DEB72A97CDBFDEBF1C01162F17DA21E02216320608F04DC09C
:2032E000611571058105910509F447C04101A12CB12CA50194010E945E382D833E834F8320
:20330000588769837A838B839C8349815A8149875A8760E070E0CB01C12CD12C7601240180
:203320003501460E571E681E791E2D813E814F815885C216D306E406F50661F0012F9101AE
:20334000A1013FDF5FEFC51AD50AE50AF50AC301B201E5CF49855A85452B59F0A5019401E7
:20336000C701B6010E942F38012F910149815A8128DF111104C084E603C089EC01C085E6A3
:203380002A96CDBFDEBFDF91CF911F910F91FF90EF90DF90CF90BF90AF909F908F907F905D
:2033A0006F905F904F903F902F90089561E080E190E077CF60E080E091E073CF8FE496E180
:2033C00057D18EE608958AE096E16DD18EE6089520918F211F922F932DEC39E03F932F93EA
:2033E00021E02F931F929F938F930E9432398DB79EB708968DBF9EBF85E6089560E071E07F
:203400000E94860985E6089540E051E0BC0180E00E94BB0985E6089580E00E94DB09882306
:2034200021F00E94060A84E608958AEC089560E071E00E94860985E6089540E051E0BC01D7
:2034400081E00E94BB0985E6089581E00E94DB09882321F00E94060A84E608958AEC08952E
:2034600060E071E00E943E0A85E60895CB010E944B0A882321F00E94060A84E608958AEC1B
:20348000089581DC80E00E94A50766E080E00E94AC0960E081E00E94AC090E94060A84E673
:2034A0000895BF92CF92DF92EF92FF920F931F93CF93DF93EC01EE24EA94F12C05EF1AE08A
:2034C0009CE2B92E6801B80180ED90E20E94FD38892BC9F0DE01F6012491ED012196C7014A
:2034E0000197211105C0BC927C01085E1F4FEACFF1E2EF16F104B8F32C93DE012FEFC21AD5
:20350000D20A7C01E8CF2197188285E6DF91CF911F910F91FF90EF90DF90CF90BF900895F6
:20352000CF93DF93EC010E94F00A9F938F9386EC99E09F938F9381E08F931F92DF93CF9393
:203540000E9432398DB79EB708968DBF9EBF85E6DF91CF910895EF92FF920F931F93CF93DE
:20356000DF9300D000D0CDB7DEB7F82EE92E04E010E020E030E040E050E0BA01CE0101968E
:2035800064DA8C811F928F938B811F928F938A811F928F9389811F928F9385EB99E09F9358
:2035A0008F9381E08F931F92EF92FF920E943239CDBFDEBF85E62496CDBFDEBFDF91CF914F
:2035C0001F910F91FF90EF900895EF92FF920F931F93CF93DF93EC0100E110E020E030E0E8
:2035E00040E050E0BA0131DA00EC10E020E030E040E150E060E070E0CE01409626DA60EDF6
:2036000070E0CE010E94522B8E017E0182EDE80EF11CF80161918F0181E090E20E94B8360E
:203620000E151F05B1F7188284E6DF91CF911F910F91FF90EF900895CF9348DBC0E08C2FEC
:203640000E940E0A80E00E94A50766E080E00E94AC0960E081E00E94AC09CF5FC83079F777
:2036600080E00E940E0A0E94060A84E6CF91089521E02093FD202093FC2024E12093FA20A5
:2036800025E030E02093F8203093F9201092F2201092F3201092F4201092F5208093F02075
:2036A0009093F120089527E02093FD2024E630E02093F8203093F9201092F2201092F32038
:2036C0001092F4201092F5208093F0209093F12008950F931F93CF939091FD209530B9F126
:2036E00030F4933001F118F5913068F43EC1973009F4A5C008F440C0983009F4A5C09930B0
:2037000009F430C132C1813031F41092F6201092F72083E0FBC0843011F466E08BC0883160
:2037200009F0F6C01FC18093FB2084E0EFC090E04091FB202FEF30E0241B31098217930783
:2037400021F485E0E3C0891741F165E16CC02091F6203091F720A9014F5F5F4F4093F6207A
:203760005093F720F901E951FE4D80834038510509F0CEC086E0CAC02091FB209091FC207F
:20378000291349C0E7EEF1E227E632E290E02E173F07C9F24191940FFACF4091F220509163
:2037A000F3206091F4207091F520E091F020F091F12000E810E020E030E087EE91E209955A
:2037C000C82F882311F18091FC208F5F8093FC208091F2209091F320A091F420B091F52009
:2037E00080589F4FAF4FBF4F8093F2209093F320A093F420B093F52066E081E090E20E9442
:20380000B83682E08093FD20B1C068E181E090E20E94B8360EC030E0892F90E0019728172E
:20382000390739F466E081E090E20E94B83682E06DC068E181E090E20E94B83693C085312E
:2038400019F41092FC2006C0883109F466CF863009F060C08091FC208F5F8093FC20409102
:20386000F2205091F3206091F4207091F520E091F020F091F12000E810E020E030E087EEB7
:2038800091E20995C82F8823D9F161E081E090E20E94B8366091FC2081E090E20E94B83697
:2038A0006091FC20609581E090E20E94B83660E870E087EE91E283DAE7EEF1E287E692E23D
:2038C00060E08E179F0719F02191620FFACF81E090E20E94B8368091F2209091F320A0917D
:2038E000F420B091F52080589F4FAF4FBF4F8093F2209093F320A093F420B093F52036C09C
:2039000064E081E090E20E94B83689E08093FD20C1E02CC08531E1F761E081E090E20E9496
:20392000B8366091FC2081E090E20E94B8366091FC20609581E090E20E94B83660E870E02C
:2039400087EE91E23CDAE7EEF1E260E082E2E736F80719F08191680FF9CF81E090E20E9432
:20396000B836D6CF1092FD20D3CFC0E08C2FCF911F910F9108958091FD20813019F087300C
:2039800029F108958091F8209091F9209C01215031092093F8203093F920892B31F5809133
:2039A000FA209FEF980F9093FA20882331F065E181E090E20E94B83602C01092FD2085E020
:2039C00090E08093F8209093F92008958091F8209091F9209C01215031092093F82030933A
:2039E000F920892B11F41092FD200895EEE0FAE020E030E09491981309C041E2429FC00183
:203A0000439F900D1124815F954F08952F5F3F4FB1962730310571F780E090E00895CF926B
:203A2000DF92EF92FF920F931F93CF93982F9F7D91549A3160F090ED980F9A3040F08F3588
:203A400031F0982F9D7F9D3311F08032C9F49FE9980F9A3108F4805220910321309104219F
:203A60002F3F310508F0CFC0A9014F5F5F4F4093032150930421F901E951FE4D8083C3C011
:203A80008D3009F095C0E0910321F0910421E951FE4D108210920321109204218091022108
:203AA0008111B1C08091E721982F9F7D09F495C08D7F8D3309F491C0E7EEF1E27F01C19121
:203AC000CC2331F0CF3321F0CD3311F0C032B1F7F701108285EFC82E8AE0D82E00E010E0F4
:203AE000B60187EE91E20E94FD38892B09F056C01092E721CF3349F488E1809FF001819F0B
:203B0000F00D1124E55FF44F18C0B7016F5F7F4FCD3349F488E1809FF001819FF00D1124B8
:203B2000E75FF44F20C0C11113C088E1809FF001819FF00D1124EB5FF44F2591349121156E
:203B4000310509F44DC087EE91E2F901099514C0C03209F045C088E1809FF001819FF00D4B
:203B60001124E95FF44F2591349121153105C1F187EE91E2F90109958F3F99F581E080939C
:203B800002212EB13FB18091080490910904822B932B809300219093012135C00F5F1F4F33
:203BA000F8E1CF0ED11C0931110509F099CF15C0883061F48091032190910421009719F1B3
:203BC000019780930321909304211DC08B31D9F4109203211092042116C088ECC0E002C02F
:203BE00089ECC1E003DFDAD88BE09AE0D7D8CC2351F08091E721882331F087EE91E2C9D8E9
:203C000088E09AE0CBD881E0CF911F910F91FF90EF90DF90CF90089580910221882389F13C
:203C2000E0919221F0919321238134812115310541F14EB15FB18091080490910904842B2B
:203C4000952B4091002150910121841B950B64E670E00E944A386217730798F01092022172
:203C60008BECC4DE9BD885E09AE098D8E091FE20F091FF20309729F009951092FE2010925A
:203C8000FF200895A0E2B6E082E011968C93119715968C931597E0E4F8E010A211A28DE29A
:203CA00091E086A397A38FEF9FEF80A791A781E0808398E8938393E097831A968C930895D2
:203CC0001F920F920FB60F9211248F939F93EF93FF9387EE92E2809311219093122187E69E
:203CE00093E280930F219093102110920A21109209211092052110920D2110920E21109214
:203D00000821E0E4F8E0138286E990E086AB97AB8AE190E080AF91AFE0E4F9E010A211A2AB
:203D20008FEF9FEF86A397A389E883838EE0808310922A06FF91EF919F918F910F900FBE8E
:203D40000F901F9018951F920F920FB60F9211242F933F938F939F93EF93FF939091280630
:203D600080910921957021E009F020E0880F822B8093092190910521992309F46BC0982F96
:203D80009770973091F51092400880E180934C081092430980910721882319F08CEB94E057
:203DA00002C08CE794E080936609909367091092062181E080934C0983E0809346098091DD
:203DC0000D2190910E21877061F090910A218F5F893011F09695FBCFE0911121F0911221DD
:203DE000908381E08093132135C0982F9C7091F191E0382F347082FD90E0909307218091F7
:203E00000821811125C020910A212695311101C080E8282B20930A2180910D2190910E2140
:203E2000019680930D2190930E2187709927892B89F4E0911121F0911221CF01019680939F
:203E4000112190931221208381E08093082102C0109208219091052181E08927809305217C
:203E600088E880934308FF91EF919F918F913F912F910F900FBE0F901F9018951F920F92CB
:203E80000FB60F9211242F933F938F939F93EF93FF9380910621853009F45AC0B8F4823029
:203EA000B9F178F4882369F1813009F0C0C08FE390E080936609909367098EE0809300083D
:203EC00027C0833051F18430B1F1B1C0883009F4A3C038F4863009F460C0873009F46DC047
:203EE000A6C0893009F49DC08A3009F0A0C010924009109246091092000881E08093142107
:203F000096C08FE790E080936609909367098FC080E48093450683E088C080E480934606D1
:203F200084E080930621E0911121F0911221808180930A217CC080910A2180FF04C080E42E
:203F40008093450603C080E48093460685E06DC080910A2190E480FF03C09093460602C0C8
:203F600090934506869580930A2180910B2190910C21019680930B2190930C219C01277095
:203F80003327232B11F486E050C020910D2130910E2182179307F1F529C0E0910F21F0910B
:203FA00010218081882321F080E48093450603C080E48093460687E038C0E0910F21F0914A
:203FC00010218081882321F080E48093460603C080E48093450620910B2130910C218091CF
:203FE0000D2190910E212817390711F488E01DC03196E0930F21F0931021E0911121F09138
:204000001221CF0101968093112190931221818180930A2184E009C080E48093460689E0D2
:2040200004C080E4809346068AE080930621FF91EF919F918F913F912F910F900FBE0F905A
:204040001F901895CF93DF93E0E4F6E084E08283128AC0E8D1E082E68E83A0E2B6E085E042
:2040600012968C93129781E050968C93509782E052968C9352971A961C921A9783E0199610
:204080008C9398E598839AE5998390E49183968381838683E0E0F8E08FE090E086A397A346
:2040A00088E090E082A793A783E28183DF91CF91E9CD80911321882309F457C010921321FC
:2040C00082E0809321068093260660910D2170910E216115710521F1E0917921F0917A2191
:2040E00087EE92E2099594FD08C0AC0123E0569547952A95E1F720E002C09F7E17C0A22F4B
:20410000B0E0A417B50790F4A951BD4DEC91F0E0ED5AF94FE491A058BF4FEC932F5FEFCFEE
:20412000E0917121F091722109951AC00097C1F080930D2190930E2110920B2110920C2178
:2041400087EE92E2809311219093122187E693E280930F219093102181E08093062105C002
:2041600010924009109246098DDD80911421882319F01092142186CD089581E080931F2184
:2041800010921E2110921A2110921C2184E490E0809316219093172184E0809315210895BB
:2041A000982F80912021882359F080911A21811108C081E020911921921718F080E0089552
:2041C00081E00895EF92FF920F931F93CF93DF931F92CDB7DEB740911D21440F440F405197
:2041E00081E080932021E42EF12CA7014D5F5F4F052E000C660B770B01E010E020E030E0C6
:2042000089E191E20E94F814A7014C5F5F4F052E000C660B770B01E010E020E030E0CE0130
:2042200001960E94F8148981881F8827881F80931821A3DF0F90DF91CF911F910F91FF9016
:20424000EF900895BF92CF92DF92EF92FF920F931F93CF93DF9300D000D0CDB7DEB790910B
:20426000902191113CC07B01B82E8EEF8B0DCB2CD12C823020F5A601440F551F440F551F88
:20428000052E000C660B770B04E010E020E030E0CE0101960E94F81482E0B81203C0F7010D
:2042A00011821082FE013196D70197012C5F3F4F81919C91892B8D93A217B307C9F7A6019D
:2042C000440F551F440F551F052E000C660B770B04E010E020E030E0C7010E94901580E0CB
:2042E0002496CDBFDEBFDF91CF911F910F91FF90EF90DF90CF90BF9008959F92AF92BF9230
:20430000CF92DF92EF92FF920F931F93CF93DF93CDB7DEB7A097CDBFDEBF7C0180911C214D
:20432000882331F010921C21B70180911B2162C0F7018081803509F473C018F4803341F0DD
:2043400076C0803A09F458C0823A09F441C06FC0F701D18080912021882359F08091182196
:20436000882339F080911A21811103C0C090192102C0C0901D21DC1428F0F701108284E0F8
:2043800090E024C2A12CB12CF4E0DF9EA0011124052E000C660B770B04E010E020E030E0E0
:2043A000C7018A0D9B1D0E94F814D394CD1001C0D12C24E0A20EB11C80E1A816B10421F7C9
:2043C00060E170E0C7010E94522B80E990E0FEC1F7011181123088F280911D21181768F6AB
:2043E000812FDEDE811102C086E07EC1B7016E5F7F4F812F27DF77C1F7011181123008F44F
:20440000BCCF80911D21181708F0B7CF812FC8DE882351F310931B2181E080931C2163C11C
:20442000F70181818111A9CF10921F21CDC190912021992309F4C5C18C3309F458C150F44E
:20444000893309F4DCC08A3309F448C08B3109F0B8C188C08B3409F49AC120F48E3309F4E6
:2044600077C1AFC1803621F0853A09F4E9C0A9C140911D2150E04D5F5F4F440F551F440F4B
:20448000551F052E000C660B770B08E010E020E030E0C7010E94F814F70186818B30B1F0BD
:2044A0008E30A1F0108284E0818383E0828381E083838483158280911D21843111F08EE0D3
:2044C00001C08BE0F701868383E0878368E070E0C7010E94522B80E590E078C1F701D1806C
:2044E000C280CD1408F449CF80911D21D81608F044CFC81608F041CF80911821882351F021
:204500008D2D4EDE882309F46FCF8C2D49DE882309F46ACF8C2D90E04D2D50E06C01C41AF0
:20452000D50AFFEFCF1ADF0ACC0CDD1CCC0CDD1C860120E030E0440F551F440F551F052EE2
:20454000000C660B770BC7010E94F814B601C7010E94522BC6010296A3E0880F991FAA95D8
:20456000E1F734C1C0901D218C2D880F880F70EFC72EC80E04E010E020E030E040E050E09B
:20458000BA01C70101960E94BD15D12CA601485F5F4F052E000C660B770B04E010E020E08E
:2045A00030E0CE0101960E94F8149981F701818198131ACF9A818281981316CF9B81838161
:2045C000981312CF9C81848198130ECF81E080931A21A601445F5F4F052E000C660B770BCC
:2045E00002E010E020E030E0C7010E94F81462E070E0C7010E94522B80E290E0E7C0F70179
:204600004181433008F0B9CE80911D2150E0480F511D440F551F440F551F052E000C660B64
:20462000770B03E010E020E030E0C7010E94F81463E070E0C7010E94522B88E290E0C6C0C5
:20464000F7014181B280A380948019821A821B821C82433008F092CEC42ED12C80911D21BC
:20466000A601480F511D440F551F440F551F052E000C660B770B03E010E020E030E0CE015C
:2046800001960E94F814892D90E0A0E0B0E0DC01992788279A298B2949815A816B817C814E
:2046A000840F951FA61FB71F89839A83AB83BC830097A105B14010F084E016C080911D21CB
:2046C000A601480F511D440F551F440F551F052E000C660B770B03E010E020E030E0CE01FC
:2046E00001960E9490158AE0F701808348CE40911D2150E04B5F5F4F440F551F440F551F3C
:20470000052E000C660B770B00E210E020E030E0C7010E94F814BE016F5F7F4F80E2FB0156
:2047200011928A95E9F740E250E0C7010E941539892B39F440E250E06AEC70E0C7010E948A
:204740002B3960E270E0C701ADD780E191E03EC080911D21F701418150E0480F511D440FF6
:20476000551F440F551F4D5F5F4F052E000C660B770B01E010E020E030E0C7010E94F8141B
:20478000F7018081811116C08DEB808313C040911D21440F440F405150E04B5F5F4F052E69
:2047A000000C660B770B01E010E020E030E0C7010E94F81461E070E0C70174D788E190E026
:2047C00005C081E080931F2180E090E0A096CDBFDEBFDF91CF911F910F91FF90EF90DF9094
:2047E000CF90BF90AF909F9008951092202180E180931D218FEF8093192110921821BDCC3C
:2048000084E180931D21DECC89E280931D21DACC81E080931F210895DF92EF92FF920F9360
:204820001F93CF93DF93CDB7DEB72697CDBFDEBF7C018B016D837E83095F1F4F83E0169515
:2048400007958A95E1F720911F21243038F44091162150911721223028F012C0243009F4A6
:2048600073C09BC02095217020931E21BE016B5F7F4FC70183D7882309F48FC082E051C08F
:20488000F701D08020911E21BE016B5F7F4FC70175D781116BC0F3E9DF1224C080911F21B6
:2048A000823009F061C019821A821B821C8288E8898303E010E020E030E040E050E0BA0150
:2048C000CE0102960E94F81420911521AE014F5F5F4FBE016B5F7F4FC70171D7882319F1B5
:2048E00083E01FC085E9D81221C080911F218330D9F504E010E020E030E044E050E060E0F3
:2049000070E0CE0101960E94F81420E0AE014F5F5F4FBE016B5F7F4FC70151D7882319F02D
:2049200084E080931F218D819E8139C0E0E3DE121BC004301105C1F4F7018181811114C0AD
:2049400084E080931F2126C0409116215091172120911E21BE016B5F7F4FC7010FD7811112
:2049600005C00330110548F481E004C090911E2181E0892780931F2110C0B801625071094F
:20498000C701BBD6811106C081E0F701808384E090E005C0C701B1DC02C080E090E02696CE
:2049A000CDBFDEBFDF91CF911F910F91FF90EF90DF9008950F931F93CF93DF93EC0103E09C
:2049C00010E020E030E040E050E0BA010E94F81404E010E020E030E044E050E060E070E056
:2049E000CE0103960E94F814DF91CF911F910F910895EF92FF920F931F93CF93DF9300D0DA
:204A0000CDB7DEB77C01FC0190818181892798E88927928189278A83938184818927958161
:204A2000892796818927898303E010E020E030E040E050E0BA01C7010E94901501E010E025
:204A400020E030E043E050E060E070E0CE0102960E94901504E010E020E030E044E050E07D
:204A600060E070E0C70103960E94901501E010E020E030E048E050E060E070E0CE010196CF
:204A80000E9490150F900F90DF91CF911F910F91FF90EF9008952091162130911721FC01E8
:204AA0002083318308958093162190931721089520911521FC0120830895809315210895B6
:204AC00021E02093242040933721411180648093392190933A2160933821109236211092AB
:204AE0003521089541E080918F21873009F040E068E084E090E0E4CF41E080918F218730A9
:204B000009F040E068E182E090E0DACF40E069E084E090E0D5CF81E0809334211092222129
:204B20001092212140E068E084E090E0C9CF81E0809324200895FF920F931F93CF93DF93AF
:204B4000FC012081203501F5218121111DC08B01EC0180913621FF24F3948F258093242025
:204B600062E070E0CF01C9D5882331F010922420F8011082118206C0F88284E090E0F80158
:204B80008083918381E001C080E0DF91CF911F910F91FF900895EF92FF920F931F93CF9368
:204BA000DF934730510511F080E020C0E80179018B01682FC801D2D58823B1F3B701C801AF
:204BC000D9D580912420823040F484E08093242080E190E08883998308C09091362181E098
:204BE0008927809324201882198281E0DF91CF911F910F91FF90EF9008958F929F92AF92BA
:204C0000BF92CF92DF92EF92FF920F931F93CF93DF93CDB7DEB76297CDBFDEBF982E7B01BA
:204C20006A01DB018C91803619F02AE330E002C020E330E0809134218823C9F0911017C01D
:204C400080E1E3E2F1E2DF011D928A95E9F784E0F701A3E2B1E201900D928A95E1F778E0DA
:204C6000A72EB12C46E350E08FEF90E018C0F701818187FF0AC0807FF0E18F9FC001112425
:204C800020543F4F46EF50E007C08C7F40E1849FC001112446E350E05C01A20EB31ED70192
:204CA0002C91217020934F219C0164E0369527956A95E1F720935021480F591F60E070E0C1
:204CC00004E010E020E030E08BE391E20E94F8148091372104E010E020E030E0882329F050
:204CE00043E050E060E070E003C040E050E0BA01CE010F960E94F814A50160E070E006E0C5
:204D000010E020E030E0CE0101960E94F814992009F453C01B861C861D861E8681E08B87B9
:204D20008B859C85AD85BE858093512190935221A0935321B093542160E470E081E591E2E6
:204D4000FDD68091512190915221A0915321B09154218093552190935621A0935721B093FD
:204D6000582160E270E085E591E2E8D69E01295F3F4FAE01455F5F4FBE01615F7F4FCE01BB
:204D8000019620D6FE013B965F01D701CE0107969E01215F3F4FF50141915F014D93FC0160
:204DA0006191CF01AD0141585F4FFA016083A216B30689F780E290E14EC080913D209091FD
:204DC0003E20A0913F20B09140208F839887A987BA878090412090904220A0904320B090DC
:204DE00044204091452050914620609147207091482020913421222341F080932721909317
:204E00002821A0932921B0932A218092512190925221A0925321B09254214093552150939C
:204E2000562160935721709358218F819885A985BA85F70180839183A283B38320E030E000
:204E4000AE01495F5F4FBE01615F7F4FCE010196B9D580E290E0D6018D939C9386E080939B
:204E600024206296CDBFDEBFDF91CF911F910F91FF90EF90DF90CF90BF90AF909F908F90F5
:204E800008950F931F93CF93DF93EC018C01060F111DC017D10729F02BD6988189278993E2
:204EA000F8CFDF91CF911F910F910895CF92DF92EF92FF920F931F93CF937B018C016C015E
:204EC000C40ED11C0C151D05A1F0F701C1917F010FD68C27F80181938F01EC2FF0E0ED5A0E
:204EE000F94FC49138D5D801A158BF4F8C278C93E9CFCF911F910F91FF90EF90DF90CF9012
:204F00000895AF92BF92CF92DF92EF92FF920F931F93CF93DF93CDB7DEB72897CDBFDEBF55
:204F20007C01AB016F8378871D821E822091392130913A2181E090912420911180E08E019A
:204F40000B5F1F4FB70127DE8111D7C2B801C701F2DD8111D2C260912420663009F4AFC0E4
:204F600060F4643099F008F08FC0623008F0BDC2609561706093362184C0683009F427C29E
:204F800008F410C16C3008F44AC2AFC2F7018081833971F580913721882351F088E8898343
:204FA000B4E0DB2E14E0C12E03E0CE01029607C0C0903821A5E0DA2E04E0CE01019610E0F0
:204FC00020E030E040E050E0BA010E94F8142C2DAE014F5F5F4FBE01695F7F4FC701EFD3C5
:204FE000882371F1D092242081E08093352128C090913521992309F43EC0909137219923E9
:2050000011F1853901F504E010E020E030E043E050E060E070E0CE0101960E94F81420914E
:205020003821AE014F5F5F4FBE01695F7F4FC701C6D3882329F085E08093242010923521DE
:205040008F81988537C08033B1F400E110E020E030E040E050E0BA01C7010E94F81460E131
:2050600070E0C7011FD385E0809324201092352180E990E01FC09091362181E0892780931E
:2050800024201092352139C2F701808180568230A0F462E070E0C70130D3882331F0AE01EC
:2050A0004B5F5F4FB70180E090C181E0F701808384E090E08D839E8320C284E0F7CF8091B1
:2050C0003421882309F447C088E0F701ABE2B1E201900D928A95E1F780912321803671F4B5
:2050E00080912221482F4295407FF0E1FF2EF40E8F5F0E943E38909322210DC080912121C3
:20510000482F4295407FE0E7FE2EF40E8F5F0E943E38909321218091332181110FC008E074
:2051200010E020E030E048E050E060E070E08CE190E20E94BD1581E0809333214F2D50E0C0
:2051400060E070E000E110E020E030E083E291E20E94BD1525C0C701AFD464E06701F4E0E2
:20516000CF0ED11CC6018DDE44E050E061E571E2C6010E941539892B59F444E065E571E2CD
:20518000C70194DE87E08093242080E290E192CF81E08093242080913421882309F4ADC1AF
:2051A00085E0A9C164E0C7016CDEBE016B5F7F4FC701C1DC8111A1C162E070E0C7019DD251
:2051C000811107C08091362111E0812780932420DBC0F7018081803309F0A7C0418147FD71
:2051E00004C0842F8370833029F0842F8F708F3009F083C04093502180913B2190913C219D
:2052000020913D21382F32953095592F5327507F09F03FC032273F70E1F5929590959227E0
:20522000907FB9F5342F47FD02C0337003C03F7009F033E08095622F62956F703323B1F0B4
:2052400090E0032E02C0959587950A94E2F7E22FF0E0032E02C0F595E7950A94E2F72E2F80
:2052600070E002C0759567953A95E2F760FBAA24A0F8B12CF501EE0FFF1FEE0FFF1F20FB89
:20528000CC24C0F8D12CCC0CDD1CEC298170E82B01C0E7E0F0E080914F21EE0FFF1FE75B49
:2052A000FF4DE80FF11D8081F7019701205F3F4F1192E217F307E1F790913E21F701918701
:2052C00082FF09C090913B21968390913C21978390913D21908784FF1DC04360F0E14F9FFE
:2052E000A0011124465F5F4F60E070E006E010E020E030E0C7010A960BC080E1489FA001F3
:20530000112460E070E000E110E020E030E0C7010E94F81460E170E0C701C4D142E1B701A8
:20532000C701C4DD80E990E1C5CE982F9F7E903A11F5F701418140935021411102C0EBD313
:20534000B5CE803A11F488E031C0803B09F0B0CE8091902181112CC0F0E14F9FA0011124AB
:2053600060E070E000E110E020E030E08FE391E20E9490151DC0803C51F4F70181818093A5
:2053800050211AE010932420C6D381278FCE813C31F4F70181818093502189E007C0823CCF
:2053A00059F4F7018181809350218BE080932420B2D39AE089277ACE8056823008F0F0CE2B
:2053C000AE014B5F5F4FB70181E017DC96C062E1C70157DDBE016B5F7F4FC701ACDB8111ED
:2053E0008CC060E170E0C70188D1882341F180919021811111C040915021F0E14F9FA0010B
:205400001124052E000C660B770B00E110E020E030E0C7010E9490157ED39AE012C066E052
:20542000C7012FDDBE016B5F7F4FC70184DB811164C064E070E0C70160D1811109C06BD33E
:2054400091E08927F701808387E08093242030CE40915021F0E14F9FA001112460E070E00D
:2054600000E110E020E030E08FE391E20E94F81490913F2180914321809598134EC08091E3
:20548000472198134AC090914021809144218095981343C08091482198133FC0909141218D
:2054A000809145218095981338C080914921981334C09091422180914621809598132DC0FA
:2054C00080914A21981329C090914B2180914C218095981322C080914D2198131EC08091F6
:2054E0004E218095981319C01BC01D821E829091362181E08927809324208D819E812896BF
:20550000CDBFDEBFDF91CF911F910F91FF90EF90DF90CF90BF90AF900895FDD295E091CF97
:2055200080913F2190914021A0914121B0914221F7014081518162817381209124202A3090
:2055400029F4841B950BA60BB70B06C0293021F4840F951FA61FB71F80933F21C92EDA2EF4
:20556000EB2EFF24C09240218D0122273327009341214B2F55276627772740934221E82FA8
:20558000E095E0934321EC2DE095E0934421E02FE095E0934521E42FE095E0934621809387
:2055A0004721C09248210093492140934A214CCF0F931F93CF93DF93EC0180913721882349
:2055C000A9F003E010E020E030E040E050E0BA01CE010E94F81404E010E020E030E043E0C0
:2055E00050E060E070E0CE01039608C004E010E020E030E040E050E0BA01CE010E94F8144F
:20560000DF91CF911F910F9108950F931F93CF93DF931F92CDB7DEB720913721222349F054
:2056200000918F2110E020E030E040E050E0BA011CC0FC01308121812327328123273381F7
:205640002327298304E010E020E030E040E050E0BA010E94901501E010E020E030E044E019
:2056600050E060E070E0CE0101960E9490150F90DF91CF911F910F91089520913921309195
:205680003A21FC012083318308958093392190933A21089520913821FC01208308958093DC
:2056A0003821089520E42093D00026EC2093D5002093D40021E02093D000DC01680F791FDC
:2056C000A617B70741F0ED91F0E0ED5AF84FE491E093D300F5CFE091D500F0E0ED5AF84F1F
:2056E000E491EC93E091D400F0E0ED5AF84FE4911196EC931092D000089520E42093D000E2
:2057000026EC2093D5002093D40021E02093D000DC01680F791FA617B70741F0ED91F0E0FE
:20572000ED5AF84FE491E093D300F5CFE091D500F0E0ED5AF84FE4918C918E130AC0E0914A
:20574000D400F0E0ED5AF84FE49181E011969C919E1380E01092D00081700895FC0190814E
:2057600081E0611102C0963219F0923509F080E081700895FC01608371830895EF92FF9292
:205780000F931F93CF93DF93EC018B017A01622FE5DF882349F0E882F98280E190E0F80105
:2057A0008083918381E004C0F8011082118280E0DF91CF911F910F91FF90EF900895AF9223
:2057C000BF92CF92DF92EF92FF920F931F93CF93DF93EC01FA019981903229F08A016B0198
:2057E000903789F02DC0308138832181298392819A8383818B832327922789278C8388E254
:2058000090E0FB0156C09A81FA01808198131BC09B818181981317C09C818281981313C02B
:205820009D81838198130FC0288361E070E0CE0139DF88E190E0F6018083918381E03CC065
:20584000892F8F7021F0F6011082118234C092959F709250E92EF12CA701BE016E5F7F4F22
:20586000CF010E941539892B19F0F6011082118284E090E05C01AE18BF08B8016E0D7F1D01
:20588000A501CE010E942239CA0DDB1DF8019081818189279281892793818927888385E014
:2058A00090E08E199F0923E0880F991F2A95E1F7F6018083918380E0DF91CF911F910F91B2
:2058C000FF90EF90DF90CF90BF90AF900895A0915921B0915A2140915B21F0915C21E0919E
:2058E0005D2130915E212A2F217E9B2F90719227242F207292272F2F247992272E2F237725
:205900009227232F2A739227292F22952F709227292F269526959227292F269550E060E0B5
:2059200070E0BA01552744275B2B4A2B76956795579547959227917098136068F093592181
:20594000E0935A2130935B2140935C2150935D2160935E210895CF93DF938CE591E2DC01C5
:205960001196EC911197AC91A295AF70B0E0A758BF4DCE2FCF70D0E0C758DF4D3C91288978
:20598000232BE295EF70F0E0E758FF4D30A1232BEC01EA81AE2FAF70B0E0A758BF4DD09614
:2059A0008C91922F982BE295EF70F0E0E754FF4D8081E92FE82BF0E0E75AFF4D8081DF911F
:2059C000CF9108955F926F927F928F929F92AF92BF92CF92DF92EF92FF920F931F93CF9349
:2059E000DF936901DC0109E511E2CCE5D1E27C0186E0E80EF11C11962C91119730E0322F46
:205A000022278C91282B88E090E0B12CB694969520FF03C0EB2DE068BE2E21FD9068369594
:205A2000279536952795815089F7F801B1928F0199931296EA16FB06F1F67B01EA0186015C
:205A40005601F4E0AF0EB11C9880F70171907F01792488E0682E812C552453947CDF81116B
:205A60008528872D817033DF550C76946A946110F5CF89248992C114D10449F0E92DF0E093
:205A8000ED5AF94F949067DF8925F80180830F5F1F4FA016B106C1F6DF91CF911F910F9143
:205AA000FF90EF90DF90CF90BF90AF909F908F907F906F905F900895CF92DF92EF92FF92B0
:205AC000CF93FC01C080D180E280F380C0E243DF9C2D91708927FBDEF694E794D794C7941F
:205AE000C150A9F7CF91FF90EF90DF90CF9008951F93CF93DF93D8E0C0E02DDF182F80E08B
:205B0000E6DEC6951111C068D150B9F78C2FDF91CF911F9108951F93CF93DF93D4E0C0E099
:205B20001ADF182F80E0D3DEC6951111C860D150B9F78C2FDF91CF911F910895FC019B012D
:205B400021503109E0F082818D72982F92959F708927982F969596958927982F969540819B
:205B60005181628173817695679557954795892780FD70684083518362837383E1CF0895E9
:205B80000F931F9381E08093672110926621109264211092622180916821813039F020F0BC
:205BA000823039F487EE03C08DE201C087E880936521409125205091262060912720709120
:205BC00028204D5F5F4F6F4F7F4F01E010E020E030E081E691E20E94F81440912520509137
:205BE000262060912720709128204C5F5F4F6F4F7F4F01E010E020E030E08FE591E20E948F
:205C0000F81480915F21881F8827881F809360211F910F9108950F931F93482F80919021DC
:205C200081110FC0CB0124E0429FA0011124052E000C660B770B04E010E020E030E00E94C4
:205C4000901580E01F910F9108950F931F93CF93DF93EC0103E010E020E030E040E050E00A
:205C6000BA010E94F81404E010E020E030E044E050E060E070E0CE0103960E94F814DF916D
:205C8000CF911F910F910895EF92FF920F931F93CF93DF9300D0CDB7DEB77C01FC01908109
:205CA0008181892798E88927928189278A839381848189279581892796818927898303E0ED
:205CC00010E020E030E040E050E0BA01C7010E94901501E010E020E030E043E050E060E036
:205CE00070E0CE0102960E94901504E010E020E030E044E050E060E070E0C70103960E94DB
:205D0000901501E010E020E030E048E050E060E070E0CE0101960E9490150F900F90DF91BA
:205D2000CF911F910F91FF90EF90089581E0809367210895109268218DE28093652184EACE
:205D400090E0A0E0B0E08093252090932620A0932720B093282014CF81E08093682187E8AE
:205D6000809365218CE092E0A0E0B0E08093252090932620A0932720B093282001CF82E0A4
:205D80008093682187EE809365218CE893E0A0E0B0E08093252090932620A0932720B093E4
:205DA0002820EECEAF92BF92CF92DF92EF92FF920F931F93CF93DF93CDB7DEB72697CDBFDF
:205DC000DEBF7C016D837E83FC011081209167212230B9F038F0233009F43EC0243009F42F
:205DE00065C0E1C1209521702093662144E450E0BE016B5F7F4FC2DC882309F4D4C182E070
:205E000050C02091662144E450E0BE016B5F7F4FB5DC811157C0133909F0C2C119821A8252
:205E20001B821C8288E8898303E010E020E030E040E050E0BA01CE0102960E94F81424E0A4
:205E4000AE014F5F5F4FBE016B5F7F4FC701B7DC882349F183E025C02091662144E450E0C8
:205E6000BE016B5F7F4F8ADC81112CC0153909F097C104E010E020E030E044E050E060E0D0
:205E800070E0CE0101960E94F81420E0AE014F5F5F4FBE016B5F7F4FC70191DC882319F053
:205EA00084E0809367218D819E817FC1CD80DE802091662144E450E0BE016B5F7F4F5EDCAA
:205EC000882329F09091662181E089276AC1B601695F7F4F33E0769567953A95E1F7633079
:205EE000710508F45DC162507109C70106DC811102C081E03BC180916421882341F0109277
:205F00006421B7016E5F7F4F8091632114C1F70180818C3309F42FC148F48033B9F18A3344
:205F200009F46DC08B3109F03BC1A8C0803661F020F4803509F42DC133C1803A09F4FDC0FB
:205F4000823A09F4E3C02CC1F701108284E08183828382E0838381E0848315828091682100
:205F6000813039F020F0823039F483E103C08FE001C081E1F701868383E0F701878368E0F1
:205F800070E0C7018FDB80E590E00FC1F701D18080916021882339F080916221811103C042
:205FA000C090612102C0C0906521DC1418F0F7011082DEC0A12CB12CF4E0DF9EA001112486
:205FC000052E000C660B770B04E010E020E030E0C7018A0D9B1D0E94F814D394CD1001C0E1
:205FE000D12C84E0A80EB11CE0E1AE16B10421F760E170E0C70156DB80E990E0D6C0F7017A
:206000004181C280C41698F280916521481778F6C81668F680916021882361F08091622156
:20602000811108C080916121481708F050C0C81608F04DC0D12C50E0C41AD50AFFEFCF1A68
:20604000DF0ACC0CDD1CCC0CDD1C860120E030E0440F551F440F551F052E000C660B770B5E
:20606000C7010E94F814B601C7011CDBC601029623E0880F991F2A95E1F797C0409125207F
:20608000509126206091272070912820485F5F4F6F4F7F4F04E010E020E030E0CE0101962D
:2060A0000E94F8140E94C616811113C09981F701818198130CC09A818281981308C09B8117
:2060C0008381981304C09C818481981711F084E04DC081E0809362214091252050912620D6
:2060E0006091272070912820445F5F4F6F4F7F4F02E010E020E030E0C7010E94F81462E0A8
:2061000070E0C701CFDA80E290E04FC0F7018181823008F44CCF90916521891708F047CFC5
:2061200090916221911104C090916121891778F6B7016E5F7F4F6FDD18C0F7018181823081
:2061400008F435CF90916521891708F030CF90916221911105C090916121891708F0B7CF35
:206160008093632181E0809364218AE0F701808384E090E01AC040E250E06AEC70E0C701BC
:206180000E942B3960E270E0C7018CDA80E191E00CC0F701818181110ACF1092672103C049
:2061A00081E08093672180E090E02696CDBFDEBFDF91CF911F910F91FF90EF90DF90CF9032
:2061C000BF90AF9008950F931F93CF93DF93CDB7DEB7EA97CDBFDEBF0CEE13E29FD2F80150
:2061E00081938F01F3E2043F1F07C1F70E94421710D3882309F404C18091EC239091ED2369
:20620000953009F478C030F4913091F168F0933079F1F6C0983009F4CDC0993009F4D2C038
:20622000963009F0EDC07BC0803821F0823809F0E7C008C01091E8238091E923882399F0CF
:20624000126011C08091F0238F70863008F0D8C085D2E091F623F091F723118112FB11273F
:2062600010F980E07BD2EFD2812F68D280E0A7C0282F2D7F09F0C4C0882319F0823061F0BF
:20628000BFC08091EE23813009F0BAC0933009F080E08093E9232AC08091EE23811126C07A
:2062A000E091F0231E2F1F708FEF810F853008F0A7C0812F53D28091ED23833011F4EFD2ED
:2062C00015C0E091F623F091F72381818B7F818324E8129FF0011124E65CFB4D1082E09144
:2062E000F623F091F72380818E7F808380E036D2AAD298D385C0811183C01091EE231F7728
:20630000A2D290D360D28823E9F31093C304111102C082E001C083E08093EB2371C08058EF
:20632000823008F06DC08091EE239091EF238C3DE3E09E0761F583E08A838AE389834FB7BB
:20634000F894DE01139620E038E052E05093CA01E32FF0E0E4911092CA0120FF03C0E29514
:20636000EF703F5FEF708E2F90E0EA3010F0C79601C0C0968D939D932F5F2C3139F74FBF8D
:2063800062D26AE370E0CE010196A6D011C06091F0237091F123AE014F5F5F4F0E94E906CA
:2063A0008C01892B69F14FD2B80189819A8110D1A6D126C0803821F546D28091E723BED175
:2063C00085D197CF81111CC08091EE239091EF2399270297ACF437D28091EE238093E723FD
:2063E00021D38091E723811106C08091C304811102C081E001C084E08093EB230E943E176C
:2064000008D2882311F01FD24AD2EA96CDBFDEBFDF91CF911F910F9108950895CF93809173
:20642000EB23882351F0C091F82380E097D1F1D18111C9DE8C2FCF9191C1CF910895CF9268
:20644000DF92EF92FF920F931F93CF93DF93EC018B017A01FDD2811136C0E114F10439F033
:20646000F70180819181081B190BC80FD91FC12CD12C0115110531F18091F4239091F52362
:20648000FC01EF5BFF4F208131978081281790F01DD1C4DFE114F10449F0F701808191817F
:2064A000C80ED91EC082D18285E00DC0D1D2882301F309C0899142D101501109FFEFCF1ACE
:2064C000DF0AD7CF80E0DF91CF911F910F91FF90EF90DF90CF900895DF92EF92FF920F930F
:2064E0001F93CF93DF93D82FC92F8B018091F823806834D18091F2239091F32380179107E6
:2065000028F00115110519F4E1D001C08C01ED2EFC2ED12C0115110509F440C08091EB23A1
:20652000811102C082E04CC0853011F483E048C070D1882311F081E043C051D181113CC073
:2065400042D1882339F32091F8238091F4239091F523FC0127FF05C0EF5BFF4FC081D0E0B3
:2065600013C0E05CFF4FC08131968081D0E0C81BD1090AC0C830D10550F4F70181917F01E2
:20658000DDD00150110921960115110599F7DD24D394289709F0D12C99D0BCCFD110BECFF1
:2065A0000BC08091EB23882309F4BCCF853009F4BDCF2FD18111BFCF12D1882391F380E0EE
:2065C000DF91CF911F910F91FF90EF90DF900895DF92EF92FF920F931F93CF93DF93D82FCF
:2065E000C92F8B018091F8238068B8D08091F2239091F3238017910728F00115110519F49E
:2066000065D001C08C01ED2EFC2ED12C0115110509F442C08091EB23811102C082E04EC0A7
:20662000853011F483E04AC0F4D0882311F081E045C0D5D081113EC0C6D0882339F320910A
:20664000F8238091F4239091F523FC0127FF05C0EF5BFF4FC081D0E015C0E05CFF4FC081AD
:2066600031968081D0E0C81BD1090CC0C830D10560F4F701849162D0FFEFEF1AFF0A015067
:20668000110921960115110589F7DD24D394289709F0D12C1BD0BACFD110BCCF0BC08091A4
:2066A000EB23882309F4BACF853009F4BBCFB1D08111BDCF94D0882391F380E0DF91CF91FD
:2066C0001F910F91FF90EF90DF900895E091F623F091F723A091F423B091F523AF5BBF4F72
:2066E0008C9190E08283938380818D798083E091F423F091F523EF5BFF4F10820895E0918F
:20670000F623F091F72380818D798083E091F423F091F523EF5BFF4F108208958091F423AB
:206720009091F523FC01EF5BFF4F208131E0320F3083FC01E20FF11D808108952091F42383
:206740003091F523F901EF5BFF4F908141E0490F4083F901E90FF11D808308958093F823B3
:20676000482F4F7050E06091C6047091C7049A0194E0220F331F9A95E1F7E4E887FF11C070
:20678000E49FC001E59F900D1124855C9B4D8093F4239093F523C90108969B01280F391F9E
:2067A0000DC0E49FC001E59F900D112487509C4D8093F4239093F523260F371F2093F623F6
:2067C0003093F72308958091F8238068C7DFE091F623F091F72380818695817008958091A5
:2067E000F8238F77BBDFA091F623B091F7238C9185FF0DC0E091F423F091F52312968D91E4
:206800009C911397E05CFF4F808381E0089580E008958091F8238F77A1DFA091F623B091DC
:20682000F7238C9184FF0DC0E091F423F091F52312968D919C911397E05CFF4F808381E025
:20684000089580E008958091F8238F7787DFE091F623F091F72380818D788083E091F6234E
:20686000F091F723808181608083E091F423F091F523EF5BFF4F10828091F82380686EDFEC
:20688000E091F623F091F723808181608083E091F423F091F523EF5BFF4F10820895E09195
:2068A000F623F091F723818184608183E091F623F091F7238181807C803459F48091F823EA
:2068C00080584CDFE091F623F091F72381818460818308951F93CF93DF93C82F162FD42F44
:2068E0003DDFE091F623F091F7231182E091F623F091F7238C2F881F8827881F880F80834D
:20690000E091F623F091F7231183E091F623F091F723128213822091F4233091F523248328
